:020000040000fa
:080000000002040000000000f2
:020000040000fa
:100008005a1400005a1400005a1400005a14000030
:100018005a1400005a1400005a1400005a14000020
:100028005a1400005a1400005a1400005a14000010
:10003800920300005a1400005a140000c413000070
:100048005a1400005a1400005a1400005a140000f0
:100058005a140000d2020000b40300005a14000031
:100068005a1400005a1400005a140000e203000059
:100078005a1400005a1400005a1400005a140000c0
:10008800c60300005a1400005a1400005a14000055
:100098005a140000420400005a1400005a140000c8
:1000a8005a1400005a1400005a1400005a14000090
:1000b800d40300005a1400008a0700005a140000f4
:1000c8005a1400005a1400005a1400005a14000070
:1000d8005a1400005a1400005a1400005a14000060
:1000e8005a1400005a1400005a1400005a14000050
:1000f8005a1400005a1400005a1400005a14000040
:100108005a1400005a1400005a1400005a1400002f
:100118005a1400005a1400005a1400005a1400001f
:100128005a1400005a1400005a1400005a1400000f
:100138005a1400005a1400005a1400005a140000ff
:100148005a1400005a1400005a1400005a140000ef
:100158005a1400005a1400005a1400005a140000df
:100168005a1400005a1400005a1400005a140000cf
:100178005a1400005a1400005a1400005a140000bf
:100188005a1400005a1400005a1400005a140000af
:100198005a1400005a1400005a1400005a1400009f
:1001a8005a1400005a1400005a1400005a1400008f
:1001b8005a1400005a1400005a1400005a1400007f
:1001c8005a1400005a1400005a1400005a1400006f
:1001d8005a1400005a1400005a1400005a1400005f
:1001e8005a1400005a1400005a1400005a1400004f
:1001f8005a1400005a1400005a1400005a1400003f
:100208005a1400005a1400005a1400005a1400002e
:100218005a1400005a1400005a1400005a1400001e
:100228005a1400005a1400005a1400005a1400000e
:100238005a1400005a1400005a1400005a140000fe
:100248005a1400005a1400005a1400005a140000ee
:100258005a1400005a1400005a1400005a140000de
:100268005a1400005a1400005a1400005a140000ce
:0c0278005a1400005a1400005a14000030
:020000040000fa
:100400002f1027000eff27000e01880000000000bb
:10041000000020000000e000020032000001200087
:10042000200288000c00070000b529000100200010
:100430000f000700000020000000e0000200320072
:100440000000020000000000009002000000000018
:100450000040da000000fe00800020000000e00004
:1004600002003200002020009001880000000600f9
:10047000a1028800800078000000eb001a0037001d
:10048000e280400054a0b4009101ba00e280400034
:1004900054a0b4009102ba00e280400054a0b4001d
:1004a0000002eb00472bde00f507b200a601880032
:1004b000602ce10008003a000049eb000201e8006e
:1004c000020039003420ec0002f0a0008301e900b2
:1004d000f9ff3e00040037006128e100010032000e
:1004e0000082eb00040007001101ba000200e000e6
:1004f000e3ff3a000000060004d0a300e20f490029
:100500001c003900810278003549ba000201e80078
:10051000020039003420ec0002f0a0008301e90061
:100520000f0032002549ba000201e800020039003c
:100530003420ec0002f0a0008301e9000800320042
:100540000400e0000600320015c9ba000201e8000c
:10055000020039003420ec0002f0a0008301e90021
:100560008180e80054a0b4000300e000e2ff3a00fc
:10057000000006009102ba00055978008301e900e5
:10058000f7ff3200c82ade00055978008301e90030
:10059000f3ff32000400e000f1ff320011d9ba008d
:1005a000eeff3700809fbe00821f780001a8a900df
:1005b0007a50e20058003a0014aea8001150e20050
:1005c000230032001081800001188000011878009b
:1005d000108188000e50e20012003200208180005d
:1005e0001218800002187800208188000ed0bf0009
:1005f000e14f50000b003600408180002118800040
:1006000001187800408188000ed0bf00e24f5000f2
:1006100004003600508180003218800002187800f3
:10062000508188000010ec000080880014aea90002
:100630007e10e30038003a0001a8a90021a8a90013
:1006400010c0b3007af0b70014aea8003200370033
:1006500010d0bf000080fb000008a30003003200a0
:100660000003f8004810f9000e0037000018a3003e
:10067000030032000203f8004810f90009003700b7
:100680000028a300030032000403f8004810f9001a
:10069000040037000038a300020032000603f8000f
:1006a0004810f900d08080008610e3001800360062
:1006b000f1808000428480008110de0000804000d4
:1006c000d080880012d0bf0008003a00e18080008e
:1006d000ea80400042828000810f51000300360012
:1006e00010c0b30012f0b7000b003700e1808000ab
:1006f00042828000810f510007003e000004e000ac
:100700000500320010c0b30011f0b700020037003e
:1007100010c0b30011f0b7004f0178004f00be00c9
:1007200000400600801f780042c1a90080ff2f0012
:100730004021b60001eba9000088a9002088a9008b
:100740000550ed00e14f500005003e0080ff2f00f6
:100750004821b60011eba90001c8a90021c8a900d1
:100760004f00780000400600801f78004ac1a900b1
:1007700080ff2f004821b60011eba90001c8a90095
:1007800021c8a9004f00780000400600801f7800b3
:1007900052c1a90080ff2f005021b6000308a90014
:1007a0004f00780000400600801f78005ac1a90061
:1007b00080ff2f005821b6000488a9004f00780060
:1007c00000400600809fbe00829fbe0091708000a6
:1007d000ca08de0078d0bf00808060008100ea0097
:1007e000cf08de0009d0bf000080fb00808f5000e2
:1007f00020003a00194ea900196ea900198ea9000f
:1008000019aea9000268a9002268a90091708000b1
:10081000025480004311de0061416100ca08de001d
:10082000efc06000400020000011dd0082c07000b9
:1008300081417800720021000349780042c1a8007c
:100840004ac1a80052c1a8005ac1a80011e1a800dd
:1008500091708000025480004311de00614161000c
:10086000ca08de00efc060000010dd0000c07000ac
:1008700008f0b7000268a9004f01be004f00be009b
:1008800000400600809fbe00829fbe00a1002100a4
:1008900091407800e780600080ff2f00030a80000d
:1008a0000301600002817000020a8800b10021008b
:1008b00091407800e7806000430a800003016000f7
:1008c00002817000420a8800c10021009140780036
:1008d000e7806000830a80000301600002817000ed
:1008e000820a8800d100210091407800e7806000f2
:1008f0005801b60000807000c00a88009170800026
:10090000025480004311de0061416100ca08de002c
:10091000efc06000400020000011dd0082c07000c8
:1009200081417800720021000349780042c1a8008b
:1009300052c1a8004ac1a8005ac1a8009170800005
:10094000025480004311de0061416100ca08de00ec
:10095000efc060000010dd0000c0700008f0b700bc
:1009600003a8a90023a8a9004f01be004f00be00a4
:10097000004006003be3a9003d03a9003d23a90078
:100980003b83a900000006000080fb00630f2700e6
:1009900000804100104078000074a100f007b20010
:1009a00003f82f007435800084816100830170009a
:1009b0007335880080ff2f004021b6004821b60023
:1009c0004081a9004881a900000a800000a0a00081
:1009d00000b0a00000c0a000000a8800400a80000b
:1009e00000a0a00000b0a00000c0a000400a880045
:1009f0000240e900630060004500dd00f2f92f00cd
:100a0000040a80008401610083017000030a8800e9
:100a1000430a80000301610002017000420a88005d
:100a20004301a8004b01a80042c1a9004ac1a90086
:100a300000fe2f004221b6004a21b60042e1a80084
:100a40004ae1a80092708000005480004300de005c
:100a5000614060004a11de006f41610043002000e8
:100a60000300dd000040710007f0b700e780600080
:100a700080ff2f00040a80000401600002817000e2
:100a8000020a88004801b60000807000400a880011
:100a900042c1a8004ac1a80000000600834aa9007c
:100aa00082eaa80082aaa900105480007000b30056
:100ab0000030a10010548800c0ff2f009c2ab6000f
:100ac0009c8aa800e05480000060a0000070a10093
:100ad000e05488009daaa9009d2aa9009dcaa800eb
:100ae000f0f82f00a22ab600c0ff2f00a20ab6001d
:100af0000020a00010558800a26aa800f0548000d1
:100b00000000a0000010a1000020a1000030a10002
:100b1000f0548800a1eaa800a12aa8009deaa80034
:100b20006547a90000000600889fbe008a9fbe009e
:100b30008c9fbe0000447800814478000246780013
:100b40008346780004457800854578000028a90090
:100b500004a8a900e44f540001003a00cfff0700a9
:100b60000884fb00600f270008044000184078004c
:100b70000074a100f007b20001f82f007235800068
:100b8000828060008100700071358800e4cf5400dd
:100b900001003a00c1ff07008984fb00600f2700b5
:100ba00089044000194078000074a100f007b200e9
:100bb00001f82f0082358000828060008100700083
:100bc0008135880080ff2f004021b6005021b600fb
:100bd0004821b6005821b6004081a9005081a900e3
:100be0004881a9005881a90011e1a9001061a9005c
:100bf0001021a900f0fc2f001021b6000621ef0003
:100c0000000a800000a0a00000b0a10000c0a10068
:100c1000000a8800800a800000a0a00000b0a100a7
:100c200000c0a100800a8800400a800000a0a00047
:100c300000b0a10000c0a100400a8800c00a8000e6
:100c400000a0a00000b0a10000c0a100c00a880060
:100c50000a45e900630565004555dd00f0f92f0000
:100c6000020a80008200600081007500010a88008d
:100c70008b45e900e3856500c55ddd005001b600e8
:100c800000807500800a88004301a8005301a80075
:100c90004b01a8005b01a80000fe2f004221b60016
:100ca0005221b6004a21b6005a21b60042e1a900fd
:100cb00052e1a9004ae1a9005ae1a900917080001f
:100cc000005480004300de0061406000ca08de007e
:100cd000efc06000420020000200dd0000c0700094
:100ce00007f0b7006706660080ff2f00020a800049
:100cf0008200600081007600010a8800e7866600b5
:100d0000820a80008200600081807600810a88006b
:100d1000420a80008200600081007600410a88005b
:100d20005801b60000807600c00a880042c1a800c1
:100d30004ac1a80052c1a8005ac1a80011e1a800e8
:100d40004f06be004f05be004f04be000000060067
:100d5000889fbe008a9fbe000044780081447800ce
:100d60000245780083457800e44f540001003a00c2
:100d70004aff07000884fb00600f270008044000ba
:100d8000184078000074a100f007b20001f82f00ad
:100d900072358000828060008100700071358800ab
:100da000e4cf540001003a003cff07008984fb00b7
:100db000600f270089044000194078000074a100ea
:100dc000f007b20001f82f008235800082806000b9
:100dd000810070008135880080ff2f004021b6001f
:100de0005021b6004821b6005821b6004081a90024
:100df0005081a9004881a9005881a900000a8000fb
:100e000000a0a00000b0a00000c0a000000a880060
:100e1000800a800000a0a00000b0a00000c0a000d8
:100e2000800a8800400a800000a0a00000b0a00056
:100e300000c0a000400a8800c00a800000a0a000f6
:100e400000b0a00000c0a000c00a8800f0f92f0088
:100e50004021b6005021b6004301a8005301a8006c
:100e60004b01a8005b01a80042e1a90000fe2f0091
:100e70004221b6004ae1a9004a21b60052e1a90088
:100e80005221b6005ae1a9005a21b60042c1a90078
:100e90004ac1a90052c1a9005ac1a9000028a9004d
:100ea00004a8a9006705650080ff2f00020a8000e2
:100eb0008200600081007500010a8800420a8000fb
:100ec0008200600081007500410a8800e7856500a6
:100ed000820a80008200600081807500810a88009b
:100ee0005801b60000807500c00a880042c1a80001
:100ef0004ac1a80052c1a8005ac1a8004f05be00af
:100f00004f04be00000006009deaa9006547a80046
:100f100000000600809fbe00829fbe00917080008e
:100f2000025480004311de0061416100ca08de0006
:100f3000efc06000400020000011dd0082c07000a2
:100f400081417800720021000349780081ff2f0061
:100f5000821520001289600004c8a90024c8a900d5
:100f600091708000025480004311de0061416100f5
:100f7000ca08de00efc060000010dd0000c0700095
:100f800008f0b7004f01be004f00be000040060051
:100f900042c1a9004ac1a90052c1a9005ac1a90071
:100fa00080ff2f004021b6004821b6005021b60036
:100fb0005821b6004081a9004881a9005081a900ac
:100fc0005881a90000000600881f780000447800be
:100fd00000f82f00ae26b600f00f2800ae26b600af
:100fe00011e1a9001061a9001021a800e3806000b0
:100ff000c408dd00f0fc2f001001b6000080700076
:1010000080088800e44f540001003a00a3fe070066
:101010000884fb00600f2700080440001840780097
:101020000074a100f007b20001f82f0032358000f3
:1010300082806000810070003135880080ff2f00c1
:101040004021b6004821b600000a800000a0a000a0
:1010500000b0a10000c0a100000a8800400a800082
:1010600000a0a00000b0a10000c0a100400a8800bc
:10107000000a80000050a0000060a100000a880063
:10108000400a80000050a0000060a100400a8800d3
:101090004081a9004881a9004301a8004b01a80094
:1010a00042c1a9004ac1a90042e1a8004ae1a80042
:1010b00000fe2f004221b6004a21b60021e1a9001e
:1010c000000980000003b30000098800801a260090
:1010d000e00888001821ef00704280000000a000a6
:1010e0000010a1000020a100704288000388a90020
:1010f0000621ef0011e1a800400a80000000a000d6
:101100000010a1000020a000400a8800000a800012
:101110000000a0000010a1000020a000000a88002c
:1011200021e1a8004ac1a80042c1a8004f047800ec
:1011300000000600889fbe000044780081447800cb
:10114000e44f540001003a0054fe07000884fb00fd
:10115000600f270008044000184078000074a100c8
:10116000f007b20001f82f00323580008280600065
:10117000810070003135880013e1a90011e1a90058
:1011800021e1a9001061a8001021a800e3846400f7
:10119000c44cdd00f0fc2f001001b600008074008c
:1011a000800888000108a900000980000003b3003e
:1011b00000098800801a2600e00888000821ef0056
:1011c0000a21ef000621ef001821ef007042800095
:1011d0000000a0000010a1000020a10070428800c3
:1011e0000388a90011e1a80021e1a8004f04be0076
:1011f000000006004022ef000148a9002148a90094
:10120000101280000000a0000010a1001012880041
:1012100010128000c001b300101288004382a900a0
:101220004362a90042e2a9004342a8004302a80089
:1012300042c2a90042a2a8004322a80041e2a8009d
:101240000000060040c2a900401288004022ab0006
:10125000feff3a004002ab00feff32004012800069
:1012600000000600e14f500007003a00e1806000f6
:10127000ca08dd00f0bf2f00040eb6000080700029
:101280002070880008003700e24f500006003a0046
:10129000e1806000c708dd00f0f72f00040eb60003
:1012a000008070002070880000000600889fbe004b
:1012b00080447800014478008040eb0009407800c9
:1012c000e8ff07000800fb0000e0a000ddff0700ca
:1012d00011c0b30009407800e2ff07004f04be00d0
:1012e00000000600881f7800004478008040eb0072
:1012f00010c0b300dbff07000804fb00001024004f
:1013000008007000cfff070011c0b3000140780053
:10131000d4ff07004f047800000006000368a9000e
:10132000d008880001802000124080000280600008
:10133000fdff320000000600f34f500008003e00a1
:101340004b00dd00cf80de00028021000310200072
:10135000020240008382480064838800758388000d
:10136000000006008100e900314888000000e90023
:10137000100888006000200000488800f03f2f001f
:101380000009b60000c0a0000048880063016100a9
:101390004411dd00f0fc2f000401b60000007100d4
:1013a00020088800b00020001048880005e1a8004f
:1013b000f00f2c008606b60000c0a0003034880074
:1013c0000000060010002000d048880080488800f7
:1013d00060002000a048880050488800a048800095
:1013e00000a0a00000b0a00000c0a000a04888009d
:1013f0005048800000a0a00000b0a00000c0a000e5
:1014000050488800f0012000b048880060488800fb
:10141000f0ff2000c04888007048880000fc2f00c2
:101420008c06b6001001b30060348800f10f2c0068
:101430005034800080806000002021000100700096
:101440005034880000000600f30f2c00c468200010
:10145000148a610031eba9008100e900214988006c
:101460000000e900d008880060002000f0488800f3
:10147000f048800000a0a10000b0a00000c0a100c2
:10148000f0488800630161004411dd00f0fc2f008a
:101490001e01b60000007100f0088800e000200086
:1014a000004988001fe1a80000fc2f008406b60058
:1014b0003001b30020348800000006001fe1a900bd
:1014c0000488a9002488a90031eba9000108a30021
:1014d0002200320002102000224988000220200051
:1014e000124988002029ef0062002000f24888009d
:1014f00002498000f201b30002498800f2488000ee
:1015000002a0a00002b0a00002c0a000f248880023
:10151000f2fc2f0003b320009309610031cba90036
:10152000c2ff2f0003b320009309610031aba80074
:1015300042922000e2598800b201200092598800ae
:1015400002002000b259880062cb2600a259880010
:10155000f21f2000f259880021003700020220000b
:101560002249880002042000124988002029ef0047
:1015700062002000f248880002498000f201b300b6
:1015800002498800f248800002a0a00002b0a0003a
:1015900002c0a000f2488800f2fc2f0003b3200034
:1015a0009309610031cba900c2ff2f0003b32000d3
:1015b0009309610031aba80042922000e2598800f3
:1015c000b20120009259880002002000b259880020
:1015d000620b2700a2598800f2012000f25988000e
:1015e0000488a9002488a80031eba800c308dd0006
:1015f0000103b200f2fc2f00f30880000301610038
:1016000002817000f2088800d00888001fe1a8005d
:1016100000fc2f008426b600f10f2c0060348000ff
:10162000808060000030210001007000603488007c
:1016300000000600000980000040a0000050a1004a
:1016400000098800418480008100e900e1088800e9
:101650001821ef0021e1a8000000060021e1a90007
:10166000010980000140a1000150a000010988008b
:101670000000e900e00888001821ef000388a900b5
:1016800021e1a800010021001240800002806000da
:10169000fdff320021e1a900000006002183a8001f
:1016a0003303a800000006002183a9003303a9002a
:1016b00001eba9000000060001a8a90021a8a900cb
:1016c000f9ff070010fe070021e3a9002223ef0025
:1016d0003223ef002e23ef003023ef002143a80038
:1016e00082d0bf007f00600001fe2f004219800001
:1016f00082806000810070004119880025e3a90004
:101700002083a900f0f12f002023b6002063a90058
:101710002043a900f00f2e002403b60000c0a00053
:101720002019880030f82f002223b600a0c0b30093
:1017300024e3b700000006001a30ef001270ef003b
:101740001170ef000000060001a8a90021a8a9005f
:10175000d5ff070021e3a9002223ef003223ef0089
:101760002e23ef003023ef002143a80021a3a9007e
:1017700025e3a9002083a900f0cf2f002223b60083
:1017800082d0bf007f00600001fe2f004219800060
:1017900082806000810070004119880028e3a90060
:1017a00000198000000eb30000198800f00f2e0011
:1017b0002403b60000c0a00020198800a0c0b30018
:1017c00024e3b70030f82f002203b600c003b300b3
:1017d00010198800000006007f00600001fe2f0045
:1017e00042198000828060008100700041198800e9
:1017f0002023a8002003ab00feff32000018800069
:10180000000006002e2eef002e0ef8001e0ef9002e
:101810000e0ea8000e2ea8001e0ea8001e2ea80058
:101820001e4ea8001e6ea8002e0ea8002e2ea80088
:101830002e4ea800000006000000e0000600320066
:101840008000eb003f000900000000008100e8007c
:10185000810f5000fbff3e000000060001a8a90018
:1018600021a8a90090ff07002223ef003223ef00f8
:101870002e23ef003023ef0021e3a9002143a8002d
:1018800021a3a90025e3a8002083a900f0cf2f0001
:101890002223b60082d0bf007f00600001fe2f002f
:1018a0004219800082806000810070004119880028
:1018b00028e3a90000198000000eb3000019880079
:1018c0002043a90030f82f002223b6002119800000
:1018d00000f02100010070002019880090c0b300c2
:1018e00024e3b70021e3a80040012000d2ff070055
:1018f000000006006cff070021e3a9002143a800b7
:101900002083a900f0f92f002003b6000070a0008a
:10191000001988002043a80082d0bf007f0060002b
:1019200001fe2f004219800082806000810070005b
:101930004119880028e3a90030f82f002223b600bf
:101940003223ef002e23ef003023ef0001a8a9007f
:1019500021a8a90090c0b30024e3b70025e3a900a3
:1019600021e3a80040012000b3ff070021e1a90006
:1019700021a1a800000980000040a0000050a100a3
:10198000000988001821ef0021e1a8000388a900c0
:101990002388a90000000600881f78002023ef009c
:1019a000610060004a00dd00f1bf2f0002198000d5
:1019b0008280600081007000011988002083a900e6
:1019c000f0f92f002003b6000070a0000019880075
:1019d0002043a8002063a80082d0bf007f006000e1
:1019e00001fe2f004219800082806000810070009b
:1019f0004119880028e3a9000fd0bf0061006000f2
:101a0000e1ff2f00321980008280600081007000a9
:101a10003119880090ff2f002623b60030f82f00e0
:101a20002223b6003223ef002e23ef003023ef00f5
:101a300001a8a90021a8a90018c0b30040322000c5
:101a40000848780025e3a90021e3a8004001200010
:101a500079ff070021e1a90021a1a8000009800069
:101a60000040a0000050a100000988001821ef00ec
:101a70000388a9002388a90001eba900f0fc2f002e
:101a8000002bb600005880000000a0000010a1004c
:101a90000058880001aba900d00020001058880031
:101aa0000840780005f0b700fcfe07004f047800fe
:101ab000000006002023ef00fbfe07002143a900e1
:101ac0002083a900f0f92f002003b6000070a000c9
:101ad000001988002043a8002063a80082d0bf001e
:101ae0007f00600001fe2f004219800082806000ac
:101af000810070004119880028e3a9000fd0bf00c1
:101b000061006000e1ff2f003219800082806000d8
:101b1000810070003119880090ff2f002623b60045
:101b200030f82f002223b6003223ef002e23ef00df
:101b30003023ef0001a8a90021a8a90010c0b3001c
:101b400024e3b70025e3a90021e3a8004001200019
:101b500039ff070021e1a90021a1a80000098000a8
:101b60000040a0000050a100000988001821ef00eb
:101b700021e1a8000388a9002388a900000006002d
:101b8000889fbe008a1f7800004478008144780056
:101b90000245780004d0bf00884f500007003a008b
:101ba000210821009140780089cf500003003a00bd
:101bb0000fd0bf008a4f50002900320082d0bf00f2
:101bc000e74f500002003200e54f500001003a009c
:101bd000cdfc0700410021008848780009407800ca
:101be00082f0b7000a4078000ff0b700e14f5400d0
:101bf00002003a00afff070019003700e74f54001a
:101c000003003a000040eb0063ff070014003700b8
:101c1000e84f540003003a0010c0b3005eff070015
:101c20000f003700e34f540002003a000bff07009b
:101c30000b003700e64f540002003a002dff07006a
:101c400007003700e54f540002003a00befe0700cf
:101c500003003700e44f540001003a0096fe0700ed
:101c60004f0578004f04be0000000600e6874700dd
:101c7000889fbe008a9fbe008c9fbe008e1f78008a
:101c80000041eb008040780050c0b300bcff07006b
:101c900021e3a80040012000e7fe07002043a80040
:101ca00001a8a9000100220002408000028060001b
:101cb000fdff320001a8a9002003ab00feff3200a7
:101cc0002043a90021e3a9000d1880001e18800000
:101cd0002c1880003b1880004a188000591880009a
:101ce000681880007718800086188000951880009a
:101cf000a4188000b3188000c2188000d01880009b
:101d000080bf9f00e0188000f1188000f1b79f00ad
:101d10008d0647000c8646008b0546000a85450067
:101d20008904450008844400870344000683430077
:101d30008502430004824200830142000281410087
:101d40008fb997008300410000804000ffb09700ea
:101d5000010040004f0778004f06be004f05be004f
:101d60004f04be006f00b10000000600881f78001d
:101d700000447800610161004c11dd00f0ff2e008d
:101d80003a03b60000007100d0198800f03f20002f
:101d90003e23b600e3806000c808dd00f0cf2f00ce
:101da0003e03b60000807000f01988003d03a900d2
:101db0003b03a900fe4f5400020032003d23a9005e
:101dc000010037003d23a8003be3a800803e20002f
:101dd00099fe07003b23a800c05d200096fe070087
:101de0003b23a9003ba3a9003d03a80008407800bd
:101df0009eff070000047800defa07000800780064
:101e00004f04780000000600012ea9000004e00045
:101e100002003200052ea80001003700052ea9009f
:101e20000100780084fe0700052ea900012ea800fd
:101e30000000000000000600881f78000004780001
:101e400001352c000040eb00efff070001352c00ae
:101e50000040eb00ecff07000041eb0051c0b30075
:101e60000140780046ff070021e1a9001821ef009a
:101e70000388a900e8088800000980000040a1004c
:101e80000050a0000009880021e1a800012ea9004f
:101e9000052ea80001002100124080000280600091
:101ea000fdff32000388a900012ea800052ea9001d
:101eb00050c0b3006dff07004f047800000006001b
:101ec000889fbe008a1f7800804478000144780013
:101ed000020578000041eb0051c0b30040c0b300e0
:101ee00027ff07003b83a8004a44dd00f03f2000a5
:101ef0003e03b60000007400f0198800e38464001b
:101f0000c84cdd00f0cf2f003e03b6000080740007
:101f1000f019880021e1a90020c1a9000009800072
:101f20000040a1000050a00000098800ea088800d5
:101f300001352c000040eb00b3ff070021e3a800af
:101f4000400120003cfe07002023a8003be3a8003e
:101f5000803e200038fe07003b23a800c05d200023
:101f600035fe07001821ef000388a9002388a90087
:101f70003b23a9003d03a80021e1a80001002100a6
:101f80001240800002806000fdff32000388a9003b
:101f900001a8a9002023a9003d03a90001002200f7
:101fa0000240800002806000fdff320001a8a9000d
:101fb0002003ab00feff3200081880006dfa070016
:101fc00021e3a900f0ff2000000064004f05780025
:101fd0004f04be00000006000001eb00c3352000e6
:101fe0000000e00009003a000a0037003f00090045
:101ff000000000008100e900fcff3a000060fe00e4
:102000000201e800820f50000200360083007800d1
:10201000f6ff370000000600e2ea2500e46a260029
:102020008001eb0003297800840f5100fdff3a0086
:1020300002402000f28188000002eb0003802000b3
:1020400002eb250060020700000000000000000015
:1020500000000600889fbe008a9fbe000004be00ec
:102060008245780003057800ebff07003e30ef0063
:102070008b85fb00c45ddd00e0ea2500808545001e
:102080000000eb00ba2d78000000e800f081880025
:10209000e80f5000fbff3a00320024000800be00a9
:1020a000060207003e30ef000000eb000aeb2500bf
:1020b000fb1f2000000140008200e80081804000fa
:1020c0008101450002014100020145004200dd009e
:1020d00008004000e0804c00130278008001eb0013
:1020e00012017800290207003e10ec00f081880000
:1020f0008b0f5000efff36004f05be004f04be00af
:1021000000000600881f780002447800c2ff070024
:102110000884fb004444dd00e0ea2500000444009c
:10212000e06a2600f000400058287800810f500037
:10213000fdff3a0080002000f08188004f04780005
:1021400000000600101180006140600000000600e1
:10215000022020001311800083006100fdff3a007f
:102160000080fb00201188000000060002202000f3
:102170001311800083006100fdff3a008080fb00a6
:1021800021118800022020001311800083006100cb
:10219000fdff3a004800de00201188000000060024
:1021a000032020001411800004816100fdff3a002b
:1021b0000081fb0022118800032020001411800000
:1021c00004816100fdff3a004800de002011880014
:1021d000022020001311800003006100fdff3a007f
:1021e0000180fb00201188000220200014118000d3
:1021f00004006100fdff3a00c808de0021118800dc
:1022000000000600022020001311800083006100fe
:10221000fdff3a000080fb0020118800000006004e
:10222000c8ff07000004e000fdff32002242ab00bf
:1022300004003200301180002222a9000040eb008f
:10224000010037003011800000000600110ea800c8
:102250001f0ea90010eea900f10f2c0022348000ff
:10226000828060000180a0002134880001f82f00e6
:1022700022368000828060008102b300213688000f
:102280002002a90091ff2f00022220001289600085
:1022900020a2a9002062a80040118800f0cf2f00e2
:1022a0002022b6002162a800f0f32f002222b600ff
:1022b00021e2a8002342a8002082a900411a0900b7
:1022c0000000000001003700d5ff07009dff070058
:1022d0000004e000fcff3a0000000600d0ff070009
:1022e0000080fb0020828800cdff07000080fb00fb
:1022f000308288004800dd004410b700000006006e
:10230000108ea800010ea800168ea800070ea800c7
:102310001a8ea8000b0ea8001622ef00803e2000a7
:1023200045fd070017e2a9007610f8001402f90035
:102330001822ef001722a90017e2a800803e200013
:102340003dfd070000000600e0032000303a880051
:10235000f0f32f004427b60000fe2f004407b6001c
:102360000000a000203a8800a109200032002000cf
:10237000800720003374200080497800814978006c
:1023800082497800123a80000200a0007105200006
:10239000600420002374200080497800814978007f
:1023a000824978000200270001002300133a8000d0
:1023b00003006100810f5000fcff3a000102200081
:1023c000123a800002806000fdff320080ff2f0083
:1023d000c22ab60011cea90015cea800112ea90060
:1023e00020cea90020eea900210ea900212ea900cf
:1023f00010cea900114ea800116ea800000ea80072
:10240000002ea800102ea800100ea800014ea90052
:10241000054ea80000eea90004eea80010aea90029
:1024200014aea800008ea9000e8ea900206ea9008f
:10243000106ea8001e6ea800104ea8001e4ea80028
:10244000200ea8002e0ea800202ea8002e2ea800d8
:10245000204ea8002e4ea800012ea8000168a90059
:102460002168a90003c8a90023c8a90041f90700f1
:10247000e4fc0700a2ff07005efb0700d1fb07009a
:1024800000000600881f78001602a800803e200089
:10249000508288001602ab000c0032000000e900f8
:1024a000508288001800200008007800e2fc070035
:1024b0001602ab0005003200508280008000e90067
:1024c000518288000000e000f7ff3a004f047800d6
:1024d00000000600881f78001642a800803e2000f9
:1024e000508288001642ab000c0032000000e90068
:1024f000508288001800200008007800cefc0700f9
:102500001642ab0005003200508280008000e900d6
:10251000518288000000e000f7ff3a004f04780085
:1025200000000600881f78001622a800803e2000c8
:10253000508288001622ab000c0032000000e90037
:10254000508288001800200008007800bafc0700bc
:102550001622ab0005003200508280008000e900a6
:10256000518288000000e000f7ff3a004f04780035
:1025700000000600881f780016a2a9001682a80095
:10258000803e2000508288001682ab000c00320092
:102590000000e90050828800180020000800780040
:1025a000a5fc07001682ab000500320050828000b7
:1025b0008000e900518288000000e000f7ff3a0047
:1025c0004f04780000000600881f780016a2a800bb
:1025d0001682a800803e2000508288001682ab0040
:1025e0000c0032000000e900508288001800200032
:1025f0000800780090fc07001682ab00050032004e
:10260000508280008000e900518288000000e000d4
:10261000f7ff3a004f04780000000600881f78009a
:10262000803e2000508288001802ab000c0032006f
:102630000000e9005082880018002000080078009f
:102640007dfc07001802ab000500320050828000bc
:102650008000e900518288000000e000f7ff3a00a6
:102660004f04780000000600889fbe000080fb0039
:1026700090108800803e20005082880019c2ab0074
:102680000e0032000000e90050828800180020008f
:10269000090024000800780067fc0700c1108000d2
:1026a0000180640005003200508280008000e90053
:1026b000518288000000e000f6ff3a00d7ff0700d3
:1026c0004f04be0000000600889fbe0080447800d2
:1026d000d2ff07001662a800803e200050828800ca
:1026e0001662ab00070032000000e900508288004b
:1026f00018002000080078004ffc07001662ab00ad
:1027000009003a001822ab0016003a0050828000ff
:102710008000e90051828800180020000000e000dd
:1027200007003a000f003700508280008000e90067
:10273000518288000000e000eeff3a00f1ff370010
:10274000080078003cfc07001822ab0005003a00a6
:10275000508280008000e900518288000000e00083
:10276000f7ff3a00881080000904e0000200320000
:1027700080ff07000100370093ff07000840780042
:102780004f04be00000006003600f800809fbe0027
:10279000829fbe00849fbe00869fbe00889fbe00b1
:1027a00000e8a9007b50e2002e003a0014aea80019
:1027b00034ff070017d0bf0000404000aaff070009
:1027c00016d0bf00a8ff070056ff070017d0bf00b4
:1027d000004040000004a000a3ff07003e30ef00cf
:1027e00018d0bf00e14f50000e00320019c0b300f6
:1027f0008881800009407800b3ff0700005c780002
:10280000888188003e10ec00f08188008101210061
:10281000914078008180fb008100e900808f5000aa
:10282000f3ff3e00888180000040eb00a6ff070018
:10283000005c78008881880026ff070014aea9009c
:102840000210ec00108088008010e30005003a00c0
:1028500000e8a90020e8a90014aea80010c0b30049
:102860007bf0b7004f04be004f03be004f02be0016
:102870004f01be004f00be003600f90000400600c8
:10288000c3c92600046c260006003700718480004e
:102890008258780071848800838f500001003a00cc
:1028a00074848800304178000204e000f7ff3a00a9
:1028b000000006000040da000000fe005400f800ae
:1028c0004239880050398800613988000500fc00d1
:1028d0005105200071398800a10a20007139880053
:1028e00029e7a80000000000000000005400f900e3
:1028f000000006000400a100010037000400a00051
:102900005400f8005039880061398800a00f200079
:10291000a00288000000eb0021002400413988005b
:10292000f10f20003208bb000400a700b2007800bd
:102930000198bb002ca7ec008301e900f9ff3a00e5
:10294000680151000400a7006801510068005000b0
:102950001208bb00ddff3700f30f20005400f80021
:102960005039880061398800a102880011002400d4
:10297000413988000208bb000388bb00d3ff370041
:102980005400f80040398800d0ff3700f30f2000d2
:10299000f50f20005400f800503988006139880094
:1029a000a00f2000a00288000000eb000208bb007e
:1029b0000398bb000408bb000598bb00110024006d
:1029c00041398800c1ff37005400f800a102880097
:1029d0008002780062004000e08048003549ba007b
:1029e0003204e0000410a700100032008301e90067
:1029f0000e0032002549ba003204e0000410a7009e
:102a00000a0032008301e900080032000408a30034
:102a1000eeff320015c9ba003204e0000410a7002e
:102a2000020032008301e900e8ff3a005400f90097
:042a3000000006009c
:020000040000fa
:102a3400454a00002d3200002e3000000000000046
:020000040000fa
:1030000000000000000000000000000000000000c0
:1030100000000000000000000000000000000000b0
:1030200000000000000000000000000000000000a0
:103030000000000000000000000000000000000090
:020000040001f9
:020000040000fa
:020000040001f9
:10200000e8874700889fbe008a9fbe008c9fbe0065
:102010008e1f780014aea90040a7a8007030ef0012
:102020007230ef00c8c00700f001200087c0070031
:1020300014aea800cdc926000e6c26000c092100a4
:102040000000200080bf9f0001092100f1b79f0020
:10205000010037000060fe003ac007000004e00005
:10206000fcff32006ec00700804478006cc007009f
:102070000044780014aea9000980fb008000eb004a
:1020800061005000e0805800eb0f5000e08f5800d6
:1020900075053e00000601000b0037008000370088
:1020a00071053700f40137006f053700b1023700c2
:1020b000bf023700fb0237002f033700420337000f
:1020c000f903370065053700e24f5400090032007c
:1020d00003003e00e14f540065053a001800370048
:1020e000e34f54003c003200e44f540060053a00d6
:1020f000250037004ac007003bf0b70048c0070082
:102100003af0b700e86a2600f004440073c0070004
:10211000002c7800890f5400fcff3a003bd0bf0030
:1021200085bc0700036b2600a20321001241780042
:102130006083800071838000c6bf070056053700aa
:1021400037c007003bf0b70035c007003af0b700d2
:102150003bd0bf0078bc0700a203210012417800e9
:102160006083800071838000e6bf0700e86a260074
:10217000f004440058007800fcbf0700890f5400a9
:10218000fcff3a004405370054c007000082880075
:1021900023c007003af0b70067bc070060838000e7
:1021a000718380009cbf070000828000e10f500017
:1021b00039053600e9ea25000004eb0059007800f3
:1021c000eabf07000804e8004010d500880f50005f
:1021d000faff3e003005370040c00700008288004b
:1021e0000fc007003af0b70000828000e10f5000f6
:1021f00008003600e9ea25000004eb0037c00700bc
:10220000802c78000804e8004010d500880f5000aa
:10221000faff3e003ad0bf0047bc0700320024005e
:102220006083800071838000a4c107000920200022
:102230000004eb000aeb25008005eb0008004400d9
:102240008000400081004500110178005282880022
:102250000000e80000004000000045001002780087
:1022600064828800c241dd00608380007183800049
:1022700000804100e08048008083880091838800ce
:102280008b017800c1c107000000000000000000c1
:102290000804e8008904e900e8ff3a00fe0437007a
:1022a0000880fb008000eb0061005000e0805800d7
:1022b000f40f5000e08f5800ef043e0000060100cc
:1022c000680037008a003700de003700b0003700b2
:1022d0001f0137002b0137004a0137002e0137005c
:1022e0003901370042013700e3043700320137007b
:1022f0000800370028003700d0003700cf00370033
:10230000dd043700dc043700db043700cd00370084
:10231000070137001ebb0700c1bf07003bf0b70035
:10232000eebf0700f0838800ecbf07004084880000
:102330000e70ef00dcbc0700b10321009140780073
:102340000174a1000041eb0060c0b3000cbe0700a7
:102350003b50e20002003d00f7bc070002003700de
:1023600010c0b30011f0b7007a70ef000030ef003a
:102370001c818800f0838000000040000c004000b9
:1023800030818800abbc070001a8a90021a8a800e3
:1023900014aea900c0043700fdba0700a0bf0700b3
:1023a0000ef0b700cdbf070000828800cbbf07004a
:1023b000f0838800c9bf070040848800babc0700ca
:1023c0000041eb008240780060c0b300ecbd070024
:1023d00010c0b30011f0b7007a70ef000030ef00ca
:1023e0001c818800f0838000800040008c804000c9
:1023f000218188004201dd000c01410042818800fa
:10240000e600b9000c00400050818800318188004e
:1024100021e3a9002343a80000828000cc00de0055
:10242000c208dd0032f82f0013198000030161009b
:102430000281700012198800f1ff20000102600083
:102440008419880021e3a80040012000fabc07009d
:1024500078bc070001a8a90021a8a80014aea90013
:102460008d0437006ebf07003bf0b7009bbf07002d
:10247000f083880099bf0700408488000e70ef0049
:10248000f0cf2f002223b600b10321009140780045
:102490000174a1000041eb0010c0b300b8bd0700fb
:1024a000f0cf2f002223b6003b50e20002003d0097
:1024b000a1bc07000200370010c0b30011f0b70044
:1024c0007a70ef000030ef001c818800f0838000fc
:1024d000000040000c0040003081880055bc07001f
:1024e00001a8a90021a8a80014aea9006a04370019
:1024f0004bbf07003bf0b70078bf0700f0838800b0
:1025000076bf07004084880010c0b3000ef0b7000b
:10251000111980000180a0000190a100111988000c
:10252000b1032100914078000174a1000041eb004b
:1025300093bd0700101980000080a0000090a1004a
:10254000101988001c818800f08380000000400082
:102550000c00400020818800308188003b50e20060
:1025600002003d0074bc07000200370010c0b30039
:1025700011f0b7007a70ef000030ef002dbc0700bb
:1025800001a8a90021a8a80014aea90042043700a0
:1025900023bf07003bf0b70050bf0700f08388005f
:1025a0004ebf07004084880030c0b3000ef0b70073
:1025b000101980000030b30010198800b103210009
:1025c000914078004409de0061016100efc06000c5
:1025d00010c0b3006abd07001c818800f083800032
:1025e000800040008c804000218188004201dd0095
:1025f0000c01410042818800e600b9000c00400057
:1026000050818800318188003b50e20002003d008b
:1026100049bc07000200370010c0b30011f0b7003a
:102620007a70ef000030ef0002bc070001a8a9009b
:1026300021a8a80014aea9001704370000fc2f0041
:102640008a26b600f6be07003bf0b70023bf07009e
:10265000f083880021bf070040848800e70f500006
:1026600002003e0080002000408488000e70ef00d1
:10267000f0cf2f002223b60001a8a90021a8a900ad
:1026800010c0b3007af0b7007e10f8000010f90017
:10269000b1032100914078000104e00005003d00f5
:1026a0000174a1000041eb0080c0b30034bd0700fd
:1026b000040037000174a1000041eb0070c0b300ba
:1026c0002fbd07000fb8970030588800ffb0970063
:1026d000215888000030200060588800f283800074
:1026e0000201e900725888000088a9002088a8002b
:1026f00001eba800f04f540002003a0024cea900dc
:1027000008003700ef4f540002003a0024cea80022
:1027100004003700f44f540002003a00200ea900d4
:10272000240ea900c3bb070014aea900da033700ca
:10273000bbbe07003bf0b700e8be07000082880080
:10274000800078003bd0bf00afbd0700d203370048
:10275000b3be07003bf0b7006f40600010f0b70059
:10276000debe0700e080880000352c003084880041
:102770003bd0bf000080fb004400de00f0808800fa
:10278000c50337007ad0bf0071be0700008080000b
:1027900076be0700c0033700a1be07003af0b700bd
:1027a0009fbe07003bf0b700804078003ad0bf00e2
:1027b000beba0700b803370099be07003af0b70069
:1027c000c8ba0700b403370095be07003af0b70057
:1027d0000041eb0031c0b30001407800e8bc0700c5
:1027e0003ad0bf00fcbb070060be0700aa03370059
:1027f0008bbe07003af0b7001cbd07005bbe0700a8
:10280000a5033700240ea900200ea80084be0700ef
:102810003bf0b700b1be070000828800afbe0700e2
:1028200000047800188288000082800000004400c4
:10283000800f540098033100b103210091407800cb
:102840008180fb00f08380008088b9000000440094
:1028500000004000000046001000780043be070062
:102860000804e800108280004010b400880f500077
:10287000f1ff3e00880337000884fb008004eb0072
:1028800061045400e0845c0010c0b300f00f5400f9
:10289000e08f5c007b033e0008060100100037005b
:1028a000200037001b0037002e0037003f003700a4
:1028b0003900370019003700260037004000370084
:1028c0004300370045003700680037007b003700c1
:1028d00082003700830037007c0037008900370012
:1028e000e8be07004ebe07003af0b7005ebf070023
:1028f000c1108000c0108000cf08de00c408dd00d9
:102900004500de000002b20000c070000004a0001c
:102910005c033700efbe07005f0337003fbf0700cf
:102920005d0337003ebe07003bf0b7004ebf070017
:10293000c1108000c0108000cf08de00c408dd0098
:102940004500de000002b20000c070000004a000dc
:102950004c03370032be07003bf0b70042bf070010
:102960004b033700efbe07002dbe07003af0b7005b
:102970003dbf0700c1108000c0108000cf08de00fe
:10298000c408dd004500de000002b20000c0700097
:102990000004a0003b03370010c0b3004abf07008b
:1029a0003af0b700eabd07003b0337000040eb00f8
:1029b00045bf07003af0b700e5bd07003603370012
:1029c00046be0700b08388004dbe070032033700c3
:1029d000c0108000e5bd07002f03370010be0700c0
:1029e0003af0b7000ebe070034f0b7000cbe070087
:1029f0003bf0b700a3be07003ad0bf000040400044
:102a000019bf070034d0bf0017bf0700c5be0700bd
:102a10003ad0bf00004040000004a00012bf0700f1
:102a20003bd0bf00e14f50000b0032000004eb0030
:102a300019c0b3000940780023bf0700c4bd0700d8
:102a40000804e8003bd0bf000080fb000000e90064
:102a5000880f5000f7ff3e000040eb001abf070050
:102a6000bbbd07009bbe07000b033700ecbd070092
:102a70003af0b700eabd07003bf0b70081be07009f
:102a80003ad0bf0000404000f7be07003b50e200d4
:102a9000080032000004eb00e1bd0700f2be0700b1
:102aa0000804e8003bd0bf000080fb00880f500006
:102ab000f9ff3e0087be0700f70237001822ef003b
:102ac0001702a80017e2a800f30237001822ef004f
:102ad0001702a90017e2a800ef02370008be07009e
:102ae000ed023700fdbd070000828800108ea900ae
:102af000148ea90050bb0700148ea800108ea800e9
:102b0000e5023700c6bd070017f0b700c4bd0700d7
:102b100016f0b700c2bd070018f0b700efbd070000
:102b2000008488000230ef007b70ef008c81880009
:102b300000e8a90020e8a90011e1a9001061a9009e
:102b400011a1a800800880000040a1000050a00052
:102b500080088800e1bd0700600888000621ef00ba
:102b600014aea90011e1a80000e8a90020e8a8001f
:102b7000c902370010c0b300e14f5400c1023a004f
:102b8000d6bd0700008288000000e00004003d0080
:102b9000f1ff20008101600083488800be023700f9
:102ba000f1ff200001026000d4488800ba0237001b
:102bb000ed4f540006003200ef4f54000c0032007d
:102bc00010c0b300e34f5400ae023a0023003700b8
:102bd00093bd07003bf0b700c0bd0700008288002e
:102be000b10321009140780034ba0700aa023700ef
:102bf0004030ef000004eb0069cb2600fa1f2000f4
:102c0000b6bd07000804440008844400000c7800a6
:102c1000088280000804e800088288008a0f5400b7
:102c2000f7ff36004030ef000004eb00690b27008f
:102c30007bbd070008044400088444000000fb003a
:102c4000000c7800088280000804e80008828800f0
:102c5000ff0f5400f6ff36008f0237009fbd0700bc
:102c6000008288009dbd0700108288006cbd0700af
:102c70003bf0b7000028a30005003200634160006c
:102c80001182800000828000efb9070082023700c5
:102c9000634160001182800000828000b1b90700aa
:102ca0007d02370010c0b300e14f540075023a00b6
:102cb0005bbd07000000fb00008288000048a30005
:102cc0000a00320001fc2f00a26820001289600077
:102cd000e1006000c608dd00f2fb2f0023718000d8
:102ce0000301610002817000227188000058a30076
:102cf000080032008000d100e1806000ce08dd00d5
:102d0000f2ff2b00847080000401610002817000da
:102d1000827088000068a3000a003200f10f2c00c6
:102d20006268200012896000c700dd000120b20047
:102d3000f2df2f00a37080000301610002817000a8
:102d4000a27088000078a3005302320001fc2f001b
:102d500044682000148a60004300dd000004b200d3
:102d60008100e900a2708000828060008100700014
:102d7000a17088004802370010c0b300e14f540032
:102d800040023a0026bd07003bf0b700e14f50007b
:102d900003003a0010708000f4bc07003c023700ca
:102da000e24f500003003a0090708000efbc070033
:102db00037023700e34f500035023a0010718000af
:102dc000eabc070032023700ec4f54002f003200fb
:102dd000ed4f54008100320010c0b300e14f5400a9
:102de00028023a000028a9003cbd070000828800a4
:102df0000bbd07003bf0b70009bd07003af0b70074
:102e0000b10321009140780063c16000c208de0078
:102e1000e78060006f406000dbb607000028ab0071
:102e200008003a00008280004e01e30005003100f6
:102e30000060fe000028ab0002003a004e01e300f3
:102e4000fbff39000028a900700a8000c7bc0700fa
:102e50003bd0bf00630060000a0032000004eb00ba
:102e6000200a8000c1bc0700600a8000bfbc0700c8
:102e70000804e8003bd0bf0063006000880f5000ea
:102e8000f7ff3e0042b807000302370013bd0700fa
:102e900000828800e2bc07003af0b700e0bc0700ff
:102ea0003bf0b700debc070000427800530321006e
:102eb00084497800b2032100124178003ad0bf0063
:102ec0008482fb00c311de00674161008080fb004b
:102ed000c408de006f406000c42ade006f4262005a
:102ee000e7c1610010b707003bd0bf000068a30036
:102ef0000a00320001fc2f00a26820001289600045
:102f00000000d1000004b2008100e90023718000bc
:102f10008380600081007000217188000082800041
:102f200002022000010037000060fe000028ab0014
:102f30000800320024408000840061000500320057
:102f400035d0bf006f0060000004eb0004003a00c1
:102f50000c0037004e01e300f3ff3900f8ff3700a3
:102f6000200a800081bc0700600a80007fbc070047
:102f70000804e80035d0bf006f006000880f5000e3
:102f8000f7ff3e0035d0bf000080fb004400de00ac
:102f90000b0032000004eb00a00a800073bc0700a5
:102fa000e00a800071bc07000804e80035d0bf00cb
:102fb0000080fb004400de00880f5000f6ff3e005a
:102fc00004a8a9000028a900700a800067bc0700b7
:102fd000efb7070011e1a900af013700bfbc070040
:102fe000008288008ebc07003af0b7008cbc070056
:102ff0003bf0b700a403210014427800c301de00b7
:10300000674160008480fb00c408de006f406200fe
:10301000e7c161004eb707000028ab0008003a0086
:10302000008280004e01e300050031000060fe00d8
:103030000028ab0002003a004e01e300fbff39001c
:10304000200a800049bc0700600a800047bc0700d6
:1030500004a8ab000c003a0001828000700a8000d6
:10306000810f500008003100020220000060fe00c5
:10307000234080000300610003003a00740a8000ce
:10308000810f5200f9ff3900a00a800037bc070009
:10309000e00a800035bc0700700a800033bc0700de
:1030a000bbb707007c0137000884fb008004eb00fd
:1030b00061045400e0845c00fb0f5400e08f5c006e
:1030c0006f013e00080601001b0037004e0037006c
:1030d0008a0037006a013700ac003700680137000a
:1030e00067013700b200370056003700c4003700d0
:1030f00063013700e8003700020137000e01370096
:1031000012013700170037005d0137001e0137003c
:10311000230137006200370059013700580137009a
:1031200015003700360037005501370054013700cd
:10313000c60037001d01370039bc07003bf0b7005f
:103140008080fb004709de00c508de00e3c06000a8
:103150007f40600005bb07001082880003bc0700a9
:103160004d0137005dbc07001082880032bb0700ac
:10317000febb07004801370029bc07003bf0b70041
:1031800027bc07003af0b7003be3a900b1032100d8
:10319000914078000181fb004711de004c11dd00f9
:1031a000f3ff2e00d4198000848161008301710037
:1031b000d31988004a00dd00f23f2000f319800097
:1031c0000301610002017000f21988006380600051
:1031d0004800dd00f1cf2f00f419800084806000ea
:1031e00081007000f11988003b03a9003be3a800af
:1031f000803e200090b907003d03a800260137005b
:10320000dcb507002401370005bc07003bf0b70020
:1032100003bc07003af0b70030bc070010828800fa
:1032200014aea90000017800a103210091407800ac
:103230003bd0bf0022bb0700ccbb070014aea800e8
:103240001501370014aea900f5bb07003bf0b7002d
:10325000c400de00e4c060006f406000b5b7070046
:10326000010021001240800002806000fdff32005a
:103270000388a90014aea8000601f8006410f90044
:103280000801f8006610f90010c0b300b0bb0700d9
:103290003183800020838000c1bb0700fe0037001f
:1032a00014aea900debb07003bf0b700c400de008f
:1032b000e4c060006f40600043b7070001002100d8
:1032c0001340800003806000fdff32000388a900e6
:1032d00014aea8004601f8006810f9004e01f8008d
:1032e0006a10f90010c0b30099bb07005183800039
:1032f00040838000aabb0700e70037000028a90030
:10330000f6bb070000828800c5bb07003bf0b70092
:1033100022c0b30051c0b3009bb5070000828000fb
:103320004e01e300020031000028ab00fcff320038
:103330000028a90001f82f00e46a2000148a600028
:103340004e01e300020031004881ab00030032006f
:1033500010c0b3007ebb0700020037000040eb0046
:103360007bbb0700200a800080bb0700600a80004a
:103370007ebb0700200a80007cbb0700600a80003b
:103380007abb070002b70700c30037009851290035
:10339000e6044400584078006dbb0700890f5400d4
:1033a000fcff3a00a0c0b30069bb0700b8003700bb
:1033b000cabb070000828800c8bb070010828800d3
:1033c0000882800008004000800f54000a0031008d
:1033d0008804e900898444008c8444005900780002
:1033e00062bb07000804e800108280004010b400af
:1033f000880f5000f9ff3e0014aea800a600370069
:10340000b6bb070000828800b4bb070010828800aa
:103410000182800001014000828f50009e00310037
:103420008100e900818040000c80400002014100e1
:10343000e1082100028140008000eb0001287800b3
:10344000820f5000fdff3a0093003700a3bb070036
:1034500000828800a1bb07001082880008828000db
:1034600008004000800f54008b0031008804e90000
:10347000898444008c84440098bb0700802c780029
:103480000804e800108280004010b400880f50004b
:10349000f9ff3e00800037007030ef007230ef001f
:1034a0008ebb07008000eb00e0828800f18288007c
:1034b0008abb07008000eb0000838800118388002e
:1034c000c000dd0000002000e2828000f382800066
:1034d00002007000838070008283800093838000ec
:1034e00000004100818049000002eb002300200021
:1034f0007481570034bd07006fb097001bbb0700f5
:10350000650037007030ef007230ef0073bb0700ca
:103510008000eb00e0828800f18288006fbb07002a
:103520008000eb0000838800118388006bbb0700dc
:10353000e0b79f005800370068bb07000082880092
:103540001000780009bb07005300370063bb070079
:103550001082880061bb0700008288001182800011
:10356000800878004c0037008000780031407800f7
:1035700061848800f6ba0700608480008d0f5000d7
:1035800001003a006e848800608480008e10e300a1
:10359000f5ff3a00a0c0b300edba07003e003700c7
:1035a00000000400000000003b00370000fc2f007a
:1035b0008a26b6000308a9002308a9000488a900e8
:1035c0002488a90021eba90031eba90043bb070027
:1035d0000082880024cea80023c0b30032c0b3000c
:1035e0008040eb0001407800d9b50700a000200022
:1035f00091b8070024cea900008280000028ab000b
:1036000002003a004e01e300fcff3900200a80006e
:10361000d6ba0700600a8000d4ba07000282800090
:1036200001022000234080000380600003003a0074
:10363000f40a8000820f5200faff3900a00a8000cd
:10364000caba0700e00a8000c8ba0700700a800002
:10365000c6ba07004eb607000f0037000880fb000f
:10366000faba07000c00370010c0b300050037009d
:1036700010c0b3000300370010c0b30001003700d2
:1036800010c0b3000004e00001003200ddba070002
:1036900014aea80070fa370010c0b300fbff37006b
:020000040000fa
:020000040001f9
:1036a000f67000000c000000820000002d2a2b00a4
:1036b0002c0429002e0c060003090000b05e000057
:1036c000060e000080000000741000001c000000c6
:1036d000820000000a007200022037000101010090
:1036e0000010270010270300050f000064000500ec
:1036f00000010000c066c00066000000001000006d
:103700007400000080000000b66c0000000400009f
:10371000820000000001fc0000f90000f600f30048
:1037200000f00000ed00ea0000e60000e300e00029
:1037300000dd0000da00d70000d40000d100ce0088
:1037400000cb0000c800c40000c10000be00bb00e8
:1037500000b80000b500b20000af0000ac00a90046
:1037600000a60000a400a100009e00009b0098009d
:103770000095000092008f00008d00008a008700f5
:103780000084000082007f00007c00007900770048
:103790000074000072006f00006c00006a00670097
:1037a0000065000062006000005d00005b005900e1
:1037b0000056000054005200004f00004d004b0026
:1037c00000490000460044000042000040003e0066
:1037d000003c00003a00380000360000340032009f
:1037e000003000002f002d00002b000029002800d1
:1037f00000260000240023000021000020001e00fd
:10380000001d00001b001a00001900001700160020
:1038100000150000130012000011000010000f003e
:10382000000e00000d000c00000b00000a00090053
:103830000008000008000700000600000600050060
:103840000004000004000300000300000200020066
:103850000002000001000100000100000000000063
:103860000000000000000000000000000000000058
:103870000000000000000000000100000100010045
:103880000002000002000200000300000300040028
:103890000004000005000600000600000700080004
:1038a0000008000009000a00000b00000c000d00d9
:1038b000000e00000f0010000011000012001300a5
:1038c0000015000016001700001900001a001b0068
:1038d000001d00001e002000002100002300240025
:1038e0000026000028002900002b00002d002f00da
:1038f00000300000320034000036000038003a008a
:10390000003c00003e004000004200004400460031
:10391000004900004b004d00004f000052005400d1
:103920000056000059005b00005d0000600062006e
:103930000065000067006a00006c00006f00720004
:103940000074000077007900007c00007f00820096
:103950000084000087008a00008d00008f00920024
:103960000095000098009b00009e0000a100a400ac
:1039700000a60000a900ac0000af0000b200b50036
:1039800000b80000bb00be0000c10000c400c800b9
:1039900000cb0000ce00d10000d40000d700da0038
:1039a00000dd0000e000e30000e60000ea00ed00ba
:1039b00000f00000f300f60000f90000fc00000039
:1039c0000103010006010900010c01000f011200b2
:1039d0000115010019011c00011f01002201250031
:1039e000012801002b012e000131010034013700b4
:1039f000013b01003e0141000144010047014a0032
:103a0000014d0100500153000156010059015b00b6
:103a1000015e010061016400016701006a016d003f
:103a20000170010072017500017801007b017d00c9
:103a30000180010083018600018801008b018d0057
:103a40000190010093019500019801009a019d00e9
:103a5000019f0100a201a40001a60100a901ab0081
:103a600001ad0100b001b20001b40100b601b9001e
:103a700001bb0100bd01bf0001c10100c301c500c0
:103a800001c70100c901cb0001cd0100cf01d00069
:103a900001d20100d401d60001d70100d901db0019
:103aa00001dc0100de01df0001e10100e201e400d0
:103ab00001e50100e601e80001e90100ea01ec008e
:103ac00001ed0100ee01ef0001f00100f101f20053
:103ad00001f30100f401f50001f60100f701f70020
:103ae00001f80100f901f90001fa0100fb01fb00f6
:103af00001fc0100fc01fd0001fd0100fd01fe00d3
:103b000001fe0100fe01ff0001ff0100ff01ff00b7
:103b100001ff0100ff01ff0001ff0100ff01ff00a5
:103b200001ff0100fe01fe0001fe0100fd01fd009c
:103b300001fd0100fc01fc0001fb0100fb01fa009a
:103b400001f90100f901f80001f70100f701f600a1
:103b500001f50100f401f30001f20100f101f000b0
:103b600001ef0100ee01ed0001ec0100ea01e900c6
:103b700001e80100e601e50001e40100e201e100e5
:103b800001df0100de01dc0001db0100d901d7000b
:103b900001d60100d401d20001d00100cf01cd0037
:103ba00001cb0100c901c70001c50100c301c1006b
:103bb00001bf0100bd01bb0001b90100b601b400a5
:103bc00001b20100b001ad0001ab0100a901a600e6
:103bd00001a40100a2019f00019d01009a0198002b
:103be0000195010093019000018d01008b01880077
:103bf0000186010083018000017d01007b017800c6
:103c00000175010072017000016d01006a01670019
:103c10000164010061015e00015b01005901560071
:103c20000153010050014d00014a010047014400c9
:103c3000014101003e013b00013701003401310028
:103c4000012e01002b0128000125010022011f0087
:103c5000011c010019011500011201000f010c00e7
:103c6000010901000601030001000000b670000018
:103c7000400000008200000020001a000014000034
:103c80000e00090000050000020001000000000015
:103c9000010002000005000009000e0000140000f1
:103ca0001a002000002600002c003200003700001f
:103cb0003b003e00003f000040003f00003e00008f
:103cc0003b003700003200002c00260000000000fe
:103cd00090100000204e0000800000000000000056
:020000040000fa
:020000040005f5
:045fe000ccff0000f2
:020000040000fa
:020000040005f5
:045fe400ffff0000bb
:020000040000fa
:020000040005f5
:045fe80079ff00003d
:020000040000fa
:020000040005f5
:045fec007dff000035
:020000040000fa
:020000040005f5
:045ff00078ff000036
:00000001FF
